{
  "_format": "hh-sol-artifact-1",
  "contractName": "CertificateStore",
  "sourceName": "contracts/CertificateStore.sol",
  "abi": [
    {
      "anonymous": false,
      "inputs": [
        {
          "indexed": false,
          "internalType": "string",
          "name": "hash",
          "type": "string"
        },
        {
          "indexed": true,
          "internalType": "address",
          "name": "issuer",
          "type": "address"
        },
        {
          "indexed": false,
          "internalType": "uint256",
          "name": "timestamp",
          "type": "uint256"
        }
      ],
      "name": "CertificateStored",
      "type": "event"
    },
    {
      "inputs": [
        {
          "internalType": "string",
          "name": "_hash",
          "type": "string"
        }
      ],
      "name": "storeCertificateHash",
      "outputs": [],
      "stateMutability": "nonpayable",
      "type": "function"
    },
    {
      "inputs": [
        {
          "internalType": "string",
          "name": "_hash",
          "type": "string"
        }
      ],
      "name": "verifyCertificateHash",
      "outputs": [
        {
          "internalType": "bool",
          "name": "",
          "type": "bool"
        }
      ],
      "stateMutability": "view",
      "type": "function"
    }
  ],
  "bytecode": "0x608060405234801561001057600080fd5b5061056d806100206000396000f3fe608060405234801561001057600080fd5b50600436106100365760003560e01c806341f48a0e1461003b578063aa874b5d14610057575b600080fd5b6100556004803603810190610050919061030b565b610087565b005b610071600480360381019061006c919061030b565b61017d565b60405161007e919061036f565b60405180910390f35b60008160405161009791906103fb565b908152602001604051809103902060009054906101000a900460ff16156100f3576040517f08c379a00000000000000000000000000000000000000000000000000000000081526004016100ea90610495565b60405180910390fd5b600160008260405161010591906103fb565b908152602001604051809103902060006101000a81548160ff0219169083151502179055503373ffffffffffffffffffffffffffffffffffffffff167f9b570906ee2b6cce3c6b0dfc73c61a7c38d4e825722ef4f3589cf07d7faeca8e8242604051610172929190610507565b60405180910390a250565b6000808260405161018e91906103fb565b908152602001604051809103902060009054906101000a900460ff169050919050565b6000604051905090565b600080fd5b600080fd5b600080fd5b600080fd5b6000601f19601f8301169050919050565b7f4e487b7100000000000000000000000000000000000000000000000000000000600052604160045260246000fd5b610218826101cf565b810181811067ffffffffffffffff82111715610237576102366101e0565b5b80604052505050565b600061024a6101b1565b9050610256828261020f565b919050565b600067ffffffffffffffff821115610276576102756101e0565b5b61027f826101cf565b9050602081019050919050565b82818337600083830152505050565b60006102ae6102a98461025b565b610240565b9050828152602081018484840111156102ca576102c96101ca565b5b6102d584828561028c565b509392505050565b600082601f8301126102f2576102f16101c5565b5b813561030284826020860161029b565b91505092915050565b600060208284031215610321576103206101bb565b5b600082013567ffffffffffffffff81111561033f5761033e6101c0565b5b61034b848285016102dd565b91505092915050565b60008115159050919050565b61036981610354565b82525050565b60006020820190506103846000830184610360565b92915050565b600081519050919050565b600081905092915050565b60005b838110156103be5780820151818401526020810190506103a3565b60008484015250505050565b60006103d58261038a565b6103df8185610395565b93506103ef8185602086016103a0565b80840191505092915050565b600061040782846103ca565b915081905092915050565b600082825260208201905092915050565b7f4365727469666963617465206861736820697320616c72656164792073746f7260008201527f6564206f6e2d636861696e2e0000000000000000000000000000000000000000602082015250565b600061047f602c83610412565b915061048a82610423565b604082019050919050565b600060208201905081810360008301526104ae81610472565b9050919050565b60006104c08261038a565b6104ca8185610412565b93506104da8185602086016103a0565b6104e3816101cf565b840191505092915050565b6000819050919050565b610501816104ee565b82525050565b6000604082019050818103600083015261052181856104b5565b905061053060208301846104f8565b939250505056fea2646970667358221220d85591061809f3a27909399bcc14ccdbc0883f3e463949401d6b673214a90a9b64736f6c63430008140033",
  "linkReferences": {},
  "deployedLinkReferences": {}
}